{
  "_format": "hh-sol-artifact-1",
  "contractName": "LiquidityToken",
  "sourceName": "contracts/dex/LiquidityToken.sol",
  "abi": [
    {
      "inputs": [],
      "stateMutability": "nonpayable",
      "type": "constructor"
    },
    {
      "inputs": [
        {
          "internalType": "address",
          "name": "spender",
          "type": "address"
        },
        {
          "internalType": "uint256",
          "name": "allowance",
          "type": "uint256"
        },
        {
          "internalType": "uint256",
          "name": "needed",
          "type": "uint256"
        }
      ],
      "name": "ERC20InsufficientAllowance",
      "type": "error"
    },
    {
      "inputs": [
        {
          "internalType": "address",
          "name": "sender",
          "type": "address"
        },
        {
          "internalType": "uint256",
          "name": "balance",
          "type": "uint256"
        },
        {
          "internalType": "uint256",
          "name": "needed",
          "type": "uint256"
        }
      ],
      "name": "ERC20InsufficientBalance",
      "type": "error"
    },
    {
      "inputs": [
        {
          "internalType": "address",
          "name": "approver",
          "type": "address"
        }
      ],
      "name": "ERC20InvalidApprover",
      "type": "error"
    },
    {
      "inputs": [
        {
          "internalType": "address",
          "name": "receiver",
          "type": "address"
        }
      ],
      "name": "ERC20InvalidReceiver",
      "type": "error"
    },
    {
      "inputs": [
        {
          "internalType": "address",
          "name": "sender",
          "type": "address"
        }
      ],
      "name": "ERC20InvalidSender",
      "type": "error"
    },
    {
      "inputs": [
        {
          "internalType": "address",
          "name": "spender",
          "type": "address"
        }
      ],
      "name": "ERC20InvalidSpender",
      "type": "error"
    },
    {
      "anonymous": false,
      "inputs": [
        {
          "indexed": true,
          "internalType": "address",
          "name": "owner",
          "type": "address"
        },
        {
          "indexed": true,
          "internalType": "address",
          "name": "spender",
          "type": "address"
        },
        {
          "indexed": false,
          "internalType": "uint256",
          "name": "value",
          "type": "uint256"
        }
      ],
      "name": "Approval",
      "type": "event"
    },
    {
      "anonymous": false,
      "inputs": [
        {
          "indexed": true,
          "internalType": "address",
          "name": "sender",
          "type": "address"
        },
        {
          "indexed": false,
          "internalType": "uint256",
          "name": "amount0",
          "type": "uint256"
        },
        {
          "indexed": false,
          "internalType": "uint256",
          "name": "amount1",
          "type": "uint256"
        },
        {
          "indexed": true,
          "internalType": "address",
          "name": "to",
          "type": "address"
        }
      ],
      "name": "Burn",
      "type": "event"
    },
    {
      "anonymous": false,
      "inputs": [
        {
          "indexed": true,
          "internalType": "address",
          "name": "sender",
          "type": "address"
        },
        {
          "indexed": false,
          "internalType": "uint256",
          "name": "amount0",
          "type": "uint256"
        },
        {
          "indexed": false,
          "internalType": "uint256",
          "name": "amount1",
          "type": "uint256"
        }
      ],
      "name": "Mint",
      "type": "event"
    },
    {
      "anonymous": false,
      "inputs": [
        {
          "indexed": true,
          "internalType": "address",
          "name": "sender",
          "type": "address"
        },
        {
          "indexed": false,
          "internalType": "uint256",
          "name": "amount0In",
          "type": "uint256"
        },
        {
          "indexed": false,
          "internalType": "uint256",
          "name": "amount0Out",
          "type": "uint256"
        },
        {
          "indexed": false,
          "internalType": "uint256",
          "name": "amount1In",
          "type": "uint256"
        },
        {
          "indexed": false,
          "internalType": "uint256",
          "name": "amount1Out",
          "type": "uint256"
        },
        {
          "indexed": true,
          "internalType": "address",
          "name": "to",
          "type": "address"
        }
      ],
      "name": "Swap",
      "type": "event"
    },
    {
      "anonymous": false,
      "inputs": [
        {
          "indexed": true,
          "internalType": "address",
          "name": "from",
          "type": "address"
        },
        {
          "indexed": true,
          "internalType": "address",
          "name": "to",
          "type": "address"
        },
        {
          "indexed": false,
          "internalType": "uint256",
          "name": "value",
          "type": "uint256"
        }
      ],
      "name": "Transfer",
      "type": "event"
    },
    {
      "inputs": [
        {
          "internalType": "address",
          "name": "owner",
          "type": "address"
        },
        {
          "internalType": "address",
          "name": "spender",
          "type": "address"
        }
      ],
      "name": "allowance",
      "outputs": [
        {
          "internalType": "uint256",
          "name": "",
          "type": "uint256"
        }
      ],
      "stateMutability": "view",
      "type": "function"
    },
    {
      "inputs": [
        {
          "internalType": "address",
          "name": "spender",
          "type": "address"
        },
        {
          "internalType": "uint256",
          "name": "value",
          "type": "uint256"
        }
      ],
      "name": "approve",
      "outputs": [
        {
          "internalType": "bool",
          "name": "",
          "type": "bool"
        }
      ],
      "stateMutability": "nonpayable",
      "type": "function"
    },
    {
      "inputs": [
        {
          "internalType": "address",
          "name": "account",
          "type": "address"
        }
      ],
      "name": "balanceOf",
      "outputs": [
        {
          "internalType": "uint256",
          "name": "",
          "type": "uint256"
        }
      ],
      "stateMutability": "view",
      "type": "function"
    },
    {
      "inputs": [
        {
          "internalType": "address",
          "name": "to",
          "type": "address"
        }
      ],
      "name": "burn",
      "outputs": [
        {
          "internalType": "uint256",
          "name": "amount0",
          "type": "uint256"
        },
        {
          "internalType": "uint256",
          "name": "amount1",
          "type": "uint256"
        }
      ],
      "stateMutability": "nonpayable",
      "type": "function"
    },
    {
      "inputs": [],
      "name": "decimals",
      "outputs": [
        {
          "internalType": "uint8",
          "name": "",
          "type": "uint8"
        }
      ],
      "stateMutability": "view",
      "type": "function"
    },
    {
      "inputs": [],
      "name": "dex",
      "outputs": [
        {
          "internalType": "address",
          "name": "",
          "type": "address"
        }
      ],
      "stateMutability": "view",
      "type": "function"
    },
    {
      "inputs": [],
      "name": "getReserve",
      "outputs": [
        {
          "internalType": "uint112",
          "name": "_reserve0",
          "type": "uint112"
        },
        {
          "internalType": "uint112",
          "name": "_reserve1",
          "type": "uint112"
        }
      ],
      "stateMutability": "view",
      "type": "function"
    },
    {
      "inputs": [
        {
          "internalType": "address",
          "name": "_token0",
          "type": "address"
        },
        {
          "internalType": "address",
          "name": "_token1",
          "type": "address"
        }
      ],
      "name": "initialize",
      "outputs": [],
      "stateMutability": "nonpayable",
      "type": "function"
    },
    {
      "inputs": [
        {
          "internalType": "address",
          "name": "to",
          "type": "address"
        }
      ],
      "name": "mint",
      "outputs": [
        {
          "internalType": "uint256",
          "name": "liquidity",
          "type": "uint256"
        }
      ],
      "stateMutability": "nonpayable",
      "type": "function"
    },
    {
      "inputs": [],
      "name": "name",
      "outputs": [
        {
          "internalType": "string",
          "name": "",
          "type": "string"
        }
      ],
      "stateMutability": "view",
      "type": "function"
    },
    {
      "inputs": [
        {
          "internalType": "uint256",
          "name": "amount0Out",
          "type": "uint256"
        },
        {
          "internalType": "uint256",
          "name": "amount1Out",
          "type": "uint256"
        },
        {
          "internalType": "address",
          "name": "to",
          "type": "address"
        }
      ],
      "name": "swap",
      "outputs": [],
      "stateMutability": "nonpayable",
      "type": "function"
    },
    {
      "inputs": [],
      "name": "symbol",
      "outputs": [
        {
          "internalType": "string",
          "name": "",
          "type": "string"
        }
      ],
      "stateMutability": "view",
      "type": "function"
    },
    {
      "inputs": [],
      "name": "token0",
      "outputs": [
        {
          "internalType": "address",
          "name": "",
          "type": "address"
        }
      ],
      "stateMutability": "view",
      "type": "function"
    },
    {
      "inputs": [],
      "name": "token1",
      "outputs": [
        {
          "internalType": "address",
          "name": "",
          "type": "address"
        }
      ],
      "stateMutability": "view",
      "type": "function"
    },
    {
      "inputs": [],
      "name": "totalSupply",
      "outputs": [
        {
          "internalType": "uint256",
          "name": "",
          "type": "uint256"
        }
      ],
      "stateMutability": "view",
      "type": "function"
    },
    {
      "inputs": [
        {
          "internalType": "address",
          "name": "to",
          "type": "address"
        },
        {
          "internalType": "uint256",
          "name": "value",
          "type": "uint256"
        }
      ],
      "name": "transfer",
      "outputs": [
        {
          "internalType": "bool",
          "name": "",
          "type": "bool"
        }
      ],
      "stateMutability": "nonpayable",
      "type": "function"
    },
    {
      "inputs": [
        {
          "internalType": "address",
          "name": "from",
          "type": "address"
        },
        {
          "internalType": "address",
          "name": "to",
          "type": "address"
        },
        {
          "internalType": "uint256",
          "name": "value",
          "type": "uint256"
        }
      ],
      "name": "transferFrom",
      "outputs": [
        {
          "internalType": "bool",
          "name": "",
          "type": "bool"
        }
      ],
      "stateMutability": "nonpayable",
      "type": "function"
    }
  ],
  "bytecode": "0x60806040523480156200001157600080fd5b506040518060400160405280600e81526020017f4c6971756964697479546f6b656e0000000000000000000000000000000000008152506040518060400160405280600381526020017f4c5054000000000000000000000000000000000000000000000000000000000081525081600390816200008f919062000365565b508060049081620000a1919062000365565b50505033600560006101000a81548173ffffffffffffffffffffffffffffffffffffffff021916908373ffffffffffffffffffffffffffffffffffffffff1602179055506200044c565b600081519050919050565b7f4e487b7100000000000000000000000000000000000000000000000000000000600052604160045260246000fd5b7f4e487b7100000000000000000000000000000000000000000000000000000000600052602260045260246000fd5b600060028204905060018216806200016d57607f821691505b60208210810362000183576200018262000125565b5b50919050565b60008190508160005260206000209050919050565b60006020601f8301049050919050565b600082821b905092915050565b600060088302620001ed7fffffffffffffffffffffffffffffffffffffffffffffffffffffffffffffffff82620001ae565b620001f98683620001ae565b95508019841693508086168417925050509392505050565b6000819050919050565b6000819050919050565b600062000246620002406200023a8462000211565b6200021b565b62000211565b9050919050565b6000819050919050565b620002628362000225565b6200027a62000271826200024d565b848454620001bb565b825550505050565b600090565b6200029162000282565b6200029e81848462000257565b505050565b5b81811015620002c657620002ba60008262000287565b600181019050620002a4565b5050565b601f8211156200031557620002df8162000189565b620002ea846200019e565b81016020851015620002fa578190505b6200031262000309856200019e565b830182620002a3565b50505b505050565b600082821c905092915050565b60006200033a600019846008026200031a565b1980831691505092915050565b600062000355838362000327565b9150826002028217905092915050565b6200037082620000eb565b67ffffffffffffffff8111156200038c576200038b620000f6565b5b62000398825462000154565b620003a5828285620002ca565b600060209050601f831160018114620003dd5760008415620003c8578287015190505b620003d4858262000347565b86555062000444565b601f198416620003ed8662000189565b60005b828110156200041757848901518255600182019150602085019450602081019050620003f0565b8683101562000437578489015162000433601f89168262000327565b8355505b6001600288020188555050505b505050505050565b612604806200045c6000396000f3fe608060405234801561001057600080fd5b506004361061010b5760003560e01c8063692058c2116100a257806389afcb441161007157806389afcb44146102bd57806395d89b41146102ee578063a9059cbb1461030c578063d21220a71461033c578063dd62ed3e1461035a5761010b565b8063692058c2146102235780636a627842146102415780636d9a640a1461027157806370a082311461028d5761010b565b806323b872dd116100de57806323b872dd1461019a578063313ce567146101ca578063485cc955146101e857806359bf5d39146102045761010b565b806306fdde0314610110578063095ea7b31461012e5780630dfe16811461015e57806318160ddd1461017c575b600080fd5b61011861038a565b6040516101259190611e67565b60405180910390f35b61014860048036038101906101439190611f22565b61041c565b6040516101559190611f7d565b60405180910390f35b61016661043f565b6040516101739190611fa7565b60405180910390f35b610184610465565b6040516101919190611fd1565b60405180910390f35b6101b460048036038101906101af9190611fec565b61046f565b6040516101c19190611f7d565b60405180910390f35b6101d261049e565b6040516101df919061205b565b60405180910390f35b61020260048036038101906101fd9190612076565b6104a7565b005b61020c6105bd565b60405161021a9291906120df565b60405180910390f35b61022b610602565b6040516102389190611fa7565b60405180910390f35b61025b60048036038101906102569190612108565b610628565b6040516102689190611fd1565b60405180910390f35b61028b60048036038101906102869190612135565b610952565b005b6102a760048036038101906102a29190612108565b610fac565b6040516102b49190611fd1565b60405180910390f35b6102d760048036038101906102d29190612108565b610ff4565b6040516102e5929190612188565b60405180910390f35b6102f66114d2565b6040516103039190611e67565b60405180910390f35b61032660048036038101906103219190611f22565b611564565b6040516103339190611f7d565b60405180910390f35b610344611587565b6040516103519190611fa7565b60405180910390f35b610374600480360381019061036f9190612076565b6115ad565b6040516103819190611fd1565b60405180910390f35b606060038054610399906121e0565b80601f01602080910402602001604051908101604052809291908181526020018280546103c5906121e0565b80156104125780601f106103e757610100808354040283529160200191610412565b820191906000526020600020905b8154815290600101906020018083116103f557829003601f168201915b5050505050905090565b600080610427611634565b905061043481858561163c565b600191505092915050565b600660009054906101000a900473ffffffffffffffffffffffffffffffffffffffff1681565b6000600254905090565b60008061047a611634565b905061048785828561164e565b6104928585856116e2565b60019150509392505050565b60006012905090565b600560009054906101000a900473ffffffffffffffffffffffffffffffffffffffff1673ffffffffffffffffffffffffffffffffffffffff163373ffffffffffffffffffffffffffffffffffffffff1614610537576040517f08c379a000000000000000000000000000000000000000000000000000000000815260040161052e9061225d565b60405180910390fd5b81600660006101000a81548173ffffffffffffffffffffffffffffffffffffffff021916908373ffffffffffffffffffffffffffffffffffffffff16021790555080600760006101000a81548173ffffffffffffffffffffffffffffffffffffffff021916908373ffffffffffffffffffffffffffffffffffffffff1602179055505050565b600080600860009054906101000a90046dffffffffffffffffffffffffffff1691506008600e9054906101000a90046dffffffffffffffffffffffffffff1690509091565b600560009054906101000a900473ffffffffffffffffffffffffffffffffffffffff1681565b600080600660009054906101000a900473ffffffffffffffffffffffffffffffffffffffff1673ffffffffffffffffffffffffffffffffffffffff166370a08231306040518263ffffffff1660e01b81526004016106869190611fa7565b602060405180830381865afa1580156106a3573d6000803e3d6000fd5b505050506040513d601f19601f820116820180604052508101906106c79190612292565b90506000600760009054906101000a900473ffffffffffffffffffffffffffffffffffffffff1673ffffffffffffffffffffffffffffffffffffffff166370a08231306040518263ffffffff1660e01b81526004016107269190611fa7565b602060405180830381865afa158015610743573d6000803e3d6000fd5b505050506040513d601f19601f820116820180604052508101906107679190612292565b90506000600860009054906101000a90046dffffffffffffffffffffffffffff166dffffffffffffffffffffffffffff16836107a391906122ee565b905060006008600e9054906101000a90046dffffffffffffffffffffffffffff166dffffffffffffffffffffffffffff16836107df91906122ee565b905060006107eb610465565b9050600081036108105761080982846108049190612322565b6117d6565b95506108a1565b61089e600860009054906101000a90046dffffffffffffffffffffffffffff166dffffffffffffffffffffffffffff16828561084c9190612322565b6108569190612393565b6008600e9054906101000a90046dffffffffffffffffffffffffffff166dffffffffffffffffffffffffffff16838561088f9190612322565b6108999190612393565b611850565b95505b600086116108e4576040517f08c379a00000000000000000000000000000000000000000000000000000000081526004016108db90612410565b60405180910390fd5b6108ee8787611869565b6108f885856118eb565b3373ffffffffffffffffffffffffffffffffffffffff167f4c209b5fc8ad50758f13e2e1088ba56a560dff690a1c6fef26394f4c03821c4f8484604051610940929190612188565b60405180910390a25050505050919050565b60008311806109615750600082115b6109a0576040517f08c379a00000000000000000000000000000000000000000000000000000000081526004016109979061247c565b60405180910390fd5b600860009054906101000a90046dffffffffffffffffffffffffffff166dffffffffffffffffffffffffffff1683108015610a0657506008600e9054906101000a90046dffffffffffffffffffffffffffff166dffffffffffffffffffffffffffff1682105b610a45576040517f08c379a0000000000000000000000000000000000000000000000000000000008152600401610a3c9061247c565b60405180910390fd5b600660009054906101000a900473ffffffffffffffffffffffffffffffffffffffff1673ffffffffffffffffffffffffffffffffffffffff168173ffffffffffffffffffffffffffffffffffffffff1614158015610af15750600760009054906101000a900473ffffffffffffffffffffffffffffffffffffffff1673ffffffffffffffffffffffffffffffffffffffff168173ffffffffffffffffffffffffffffffffffffffff1614155b610b30576040517f08c379a0000000000000000000000000000000000000000000000000000000008152600401610b279061247c565b60405180910390fd5b6000831115610bdb57600660009054906101000a900473ffffffffffffffffffffffffffffffffffffffff1673ffffffffffffffffffffffffffffffffffffffff1663a9059cbb82856040518363ffffffff1660e01b8152600401610b9692919061249c565b6020604051808303816000875af1158015610bb5573d6000803e3d6000fd5b505050506040513d601f19601f82011682018060405250810190610bd991906124f1565b505b6000821115610c8657600760009054906101000a900473ffffffffffffffffffffffffffffffffffffffff1673ffffffffffffffffffffffffffffffffffffffff1663a9059cbb82846040518363ffffffff1660e01b8152600401610c4192919061249c565b6020604051808303816000875af1158015610c60573d6000803e3d6000fd5b505050506040513d601f19601f82011682018060405250810190610c8491906124f1565b505b6000600660009054906101000a900473ffffffffffffffffffffffffffffffffffffffff1673ffffffffffffffffffffffffffffffffffffffff166370a08231306040518263ffffffff1660e01b8152600401610ce39190611fa7565b602060405180830381865afa158015610d00573d6000803e3d6000fd5b505050506040513d601f19601f82011682018060405250810190610d249190612292565b90506000600760009054906101000a900473ffffffffffffffffffffffffffffffffffffffff1673ffffffffffffffffffffffffffffffffffffffff166370a08231306040518263ffffffff1660e01b8152600401610d839190611fa7565b602060405180830381865afa158015610da0573d6000803e3d6000fd5b505050506040513d601f19601f82011682018060405250810190610dc49190612292565b9050600085600860009054906101000a90046dffffffffffffffffffffffffffff166dffffffffffffffffffffffffffff16610e0091906122ee565b8311610e0d576000610e51565b85600860009054906101000a90046dffffffffffffffffffffffffffff166dffffffffffffffffffffffffffff16610e4591906122ee565b83610e5091906122ee565b5b90506000856008600e9054906101000a90046dffffffffffffffffffffffffffff166dffffffffffffffffffffffffffff16610e8d91906122ee565b8311610e9a576000610ede565b856008600e9054906101000a90046dffffffffffffffffffffffffffff166dffffffffffffffffffffffffffff16610ed291906122ee565b83610edd91906122ee565b5b90506000821180610eef5750600081115b610f2e576040517f08c379a0000000000000000000000000000000000000000000000000000000008152600401610f259061247c565b60405180910390fd5b610f3884846118eb565b8473ffffffffffffffffffffffffffffffffffffffff163373ffffffffffffffffffffffffffffffffffffffff167fd78ad95fa46c994b6551d0da85fc275fe613ce37657fb8d5e3d130840159d82284848b8b604051610f9b949392919061251e565b60405180910390a350505050505050565b60008060008373ffffffffffffffffffffffffffffffffffffffff1673ffffffffffffffffffffffffffffffffffffffff168152602001908152602001600020549050919050565b6000806000600660009054906101000a900473ffffffffffffffffffffffffffffffffffffffff1673ffffffffffffffffffffffffffffffffffffffff166370a08231306040518263ffffffff1660e01b81526004016110549190611fa7565b602060405180830381865afa158015611071573d6000803e3d6000fd5b505050506040513d601f19601f820116820180604052508101906110959190612292565b90506000600760009054906101000a900473ffffffffffffffffffffffffffffffffffffffff1673ffffffffffffffffffffffffffffffffffffffff166370a08231306040518263ffffffff1660e01b81526004016110f49190611fa7565b602060405180830381865afa158015611111573d6000803e3d6000fd5b505050506040513d601f19601f820116820180604052508101906111359190612292565b9050600061114230610fac565b9050600061114e610465565b905080848361115d9190612322565b6111679190612393565b95508083836111769190612322565b6111809190612393565b945060008611806111915750600085115b6111d0576040517f08c379a00000000000000000000000000000000000000000000000000000000081526004016111c79061247c565b60405180910390fd5b6111da3083611959565b600660009054906101000a900473ffffffffffffffffffffffffffffffffffffffff1673ffffffffffffffffffffffffffffffffffffffff1663a9059cbb88886040518363ffffffff1660e01b815260040161123792919061249c565b6020604051808303816000875af1158015611256573d6000803e3d6000fd5b505050506040513d601f19601f8201168201806040525081019061127a91906124f1565b50600760009054906101000a900473ffffffffffffffffffffffffffffffffffffffff1673ffffffffffffffffffffffffffffffffffffffff1663a9059cbb88876040518363ffffffff1660e01b81526004016112d892919061249c565b6020604051808303816000875af11580156112f7573d6000803e3d6000fd5b505050506040513d601f19601f8201168201806040525081019061131b91906124f1565b50600660009054906101000a900473ffffffffffffffffffffffffffffffffffffffff1673ffffffffffffffffffffffffffffffffffffffff166370a08231306040518263ffffffff1660e01b81526004016113779190611fa7565b602060405180830381865afa158015611394573d6000803e3d6000fd5b505050506040513d601f19601f820116820180604052508101906113b89190612292565b9350600760009054906101000a900473ffffffffffffffffffffffffffffffffffffffff1673ffffffffffffffffffffffffffffffffffffffff166370a08231306040518263ffffffff1660e01b81526004016114159190611fa7565b602060405180830381865afa158015611432573d6000803e3d6000fd5b505050506040513d601f19601f820116820180604052508101906114569190612292565b925061146284846118eb565b8673ffffffffffffffffffffffffffffffffffffffff163373ffffffffffffffffffffffffffffffffffffffff167fdccd412f0b1252819cb1fd330b93224ca42612892bb3f4f789976e6d8193649688886040516114c1929190612188565b60405180910390a350505050915091565b6060600480546114e1906121e0565b80601f016020809104026020016040519081016040528092919081815260200182805461150d906121e0565b801561155a5780601f1061152f5761010080835404028352916020019161155a565b820191906000526020600020905b81548152906001019060200180831161153d57829003601f168201915b5050505050905090565b60008061156f611634565b905061157c8185856116e2565b600191505092915050565b600760009054906101000a900473ffffffffffffffffffffffffffffffffffffffff1681565b6000600160008473ffffffffffffffffffffffffffffffffffffffff1673ffffffffffffffffffffffffffffffffffffffff16815260200190815260200160002060008373ffffffffffffffffffffffffffffffffffffffff1673ffffffffffffffffffffffffffffffffffffffff16815260200190815260200160002054905092915050565b600033905090565b61164983838360016119db565b505050565b600061165a84846115ad565b90507fffffffffffffffffffffffffffffffffffffffffffffffffffffffffffffffff81146116dc57818110156116cc578281836040517ffb8f41b20000000000000000000000000000000000000000000000000000000081526004016116c393929190612563565b60405180910390fd5b6116db848484840360006119db565b5b50505050565b600073ffffffffffffffffffffffffffffffffffffffff168373ffffffffffffffffffffffffffffffffffffffff16036117545760006040517f96c6fd1e00000000000000000000000000000000000000000000000000000000815260040161174b9190611fa7565b60405180910390fd5b600073ffffffffffffffffffffffffffffffffffffffff168273ffffffffffffffffffffffffffffffffffffffff16036117c65760006040517fec442f050000000000000000000000000000000000000000000000000000000081526004016117bd9190611fa7565b60405180910390fd5b6117d1838383611bb2565b505050565b6000600382111561183d57819050600060016002846117f59190612393565b6117ff919061259a565b90505b8181101561183757809150600281828561181c9190612393565b611826919061259a565b6118309190612393565b9050611802565b5061184b565b6000821461184a57600190505b5b919050565b600081831061185f5781611861565b825b905092915050565b600073ffffffffffffffffffffffffffffffffffffffff168273ffffffffffffffffffffffffffffffffffffffff16036118db5760006040517fec442f050000000000000000000000000000000000000000000000000000000081526004016118d29190611fa7565b60405180910390fd5b6118e760008383611bb2565b5050565b81600860006101000a8154816dffffffffffffffffffffffffffff02191690836dffffffffffffffffffffffffffff160217905550806008600e6101000a8154816dffffffffffffffffffffffffffff02191690836dffffffffffffffffffffffffffff1602179055505050565b600073ffffffffffffffffffffffffffffffffffffffff168273ffffffffffffffffffffffffffffffffffffffff16036119cb5760006040517f96c6fd1e0000000000000000000000000000000000000000000000000000000081526004016119c29190611fa7565b60405180910390fd5b6119d782600083611bb2565b5050565b600073ffffffffffffffffffffffffffffffffffffffff168473ffffffffffffffffffffffffffffffffffffffff1603611a4d5760006040517fe602df05000000000000000000000000000000000000000000000000000000008152600401611a449190611fa7565b60405180910390fd5b600073ffffffffffffffffffffffffffffffffffffffff168373ffffffffffffffffffffffffffffffffffffffff1603611abf5760006040517f94280d62000000000000000000000000000000000000000000000000000000008152600401611ab69190611fa7565b60405180910390fd5b81600160008673ffffffffffffffffffffffffffffffffffffffff1673ffffffffffffffffffffffffffffffffffffffff16815260200190815260200160002060008573ffffffffffffffffffffffffffffffffffffffff1673ffffffffffffffffffffffffffffffffffffffff168152602001908152602001600020819055508015611bac578273ffffffffffffffffffffffffffffffffffffffff168473ffffffffffffffffffffffffffffffffffffffff167f8c5be1e5ebec7d5bd14f71427d1e84f3dd0314c0f7b2291e5b200ac8c7c3b92584604051611ba39190611fd1565b60405180910390a35b50505050565b600073ffffffffffffffffffffffffffffffffffffffff168373ffffffffffffffffffffffffffffffffffffffff1603611c04578060026000828254611bf8919061259a565b92505081905550611cd7565b60008060008573ffffffffffffffffffffffffffffffffffffffff1673ffffffffffffffffffffffffffffffffffffffff16815260200190815260200160002054905081811015611c90578381836040517fe450d38c000000000000000000000000000000000000000000000000000000008152600401611c8793929190612563565b60405180910390fd5b8181036000808673ffffffffffffffffffffffffffffffffffffffff1673ffffffffffffffffffffffffffffffffffffffff16815260200190815260200160002081905550505b600073ffffffffffffffffffffffffffffffffffffffff168273ffffffffffffffffffffffffffffffffffffffff1603611d205780600260008282540392505081905550611d6d565b806000808473ffffffffffffffffffffffffffffffffffffffff1673ffffffffffffffffffffffffffffffffffffffff168152602001908152602001600020600082825401925050819055505b8173ffffffffffffffffffffffffffffffffffffffff168373ffffffffffffffffffffffffffffffffffffffff167fddf252ad1be2c89b69c2b068fc378daa952ba7f163c4a11628f55a4df523b3ef83604051611dca9190611fd1565b60405180910390a3505050565b600081519050919050565b600082825260208201905092915050565b60005b83811015611e11578082015181840152602081019050611df6565b60008484015250505050565b6000601f19601f8301169050919050565b6000611e3982611dd7565b611e438185611de2565b9350611e53818560208601611df3565b611e5c81611e1d565b840191505092915050565b60006020820190508181036000830152611e818184611e2e565b905092915050565b600080fd5b600073ffffffffffffffffffffffffffffffffffffffff82169050919050565b6000611eb982611e8e565b9050919050565b611ec981611eae565b8114611ed457600080fd5b50565b600081359050611ee681611ec0565b92915050565b6000819050919050565b611eff81611eec565b8114611f0a57600080fd5b50565b600081359050611f1c81611ef6565b92915050565b60008060408385031215611f3957611f38611e89565b5b6000611f4785828601611ed7565b9250506020611f5885828601611f0d565b9150509250929050565b60008115159050919050565b611f7781611f62565b82525050565b6000602082019050611f926000830184611f6e565b92915050565b611fa181611eae565b82525050565b6000602082019050611fbc6000830184611f98565b92915050565b611fcb81611eec565b82525050565b6000602082019050611fe66000830184611fc2565b92915050565b60008060006060848603121561200557612004611e89565b5b600061201386828701611ed7565b935050602061202486828701611ed7565b925050604061203586828701611f0d565b9150509250925092565b600060ff82169050919050565b6120558161203f565b82525050565b6000602082019050612070600083018461204c565b92915050565b6000806040838503121561208d5761208c611e89565b5b600061209b85828601611ed7565b92505060206120ac85828601611ed7565b9150509250929050565b60006dffffffffffffffffffffffffffff82169050919050565b6120d9816120b6565b82525050565b60006040820190506120f460008301856120d0565b61210160208301846120d0565b9392505050565b60006020828403121561211e5761211d611e89565b5b600061212c84828501611ed7565b91505092915050565b60008060006060848603121561214e5761214d611e89565b5b600061215c86828701611f0d565b935050602061216d86828701611f0d565b925050604061217e86828701611ed7565b9150509250925092565b600060408201905061219d6000830185611fc2565b6121aa6020830184611fc2565b9392505050565b7f4e487b7100000000000000000000000000000000000000000000000000000000600052602260045260246000fd5b600060028204905060018216806121f857607f821691505b60208210810361220b5761220a6121b1565b5b50919050565b7f6f6e6c79206465782063616e2063616c6c000000000000000000000000000000600082015250565b6000612247601183611de2565b915061225282612211565b602082019050919050565b600060208201905081810360008301526122768161223a565b9050919050565b60008151905061228c81611ef6565b92915050565b6000602082840312156122a8576122a7611e89565b5b60006122b68482850161227d565b91505092915050565b7f4e487b7100000000000000000000000000000000000000000000000000000000600052601160045260246000fd5b60006122f982611eec565b915061230483611eec565b925082820390508181111561231c5761231b6122bf565b5b92915050565b600061232d82611eec565b915061233883611eec565b925082820261234681611eec565b9150828204841483151761235d5761235c6122bf565b5b5092915050565b7f4e487b7100000000000000000000000000000000000000000000000000000000600052601260045260246000fd5b600061239e82611eec565b91506123a983611eec565b9250826123b9576123b8612364565b5b828204905092915050565b7f696e73756666696369656e74206c6971756964697479206d696e746564000000600082015250565b60006123fa601d83611de2565b9150612405826123c4565b602082019050919050565b60006020820190508181036000830152612429816123ed565b9050919050565b7f6661696c65640000000000000000000000000000000000000000000000000000600082015250565b6000612466600683611de2565b915061247182612430565b602082019050919050565b6000602082019050818103600083015261249581612459565b9050919050565b60006040820190506124b16000830185611f98565b6124be6020830184611fc2565b9392505050565b6124ce81611f62565b81146124d957600080fd5b50565b6000815190506124eb816124c5565b92915050565b60006020828403121561250757612506611e89565b5b6000612515848285016124dc565b91505092915050565b60006080820190506125336000830187611fc2565b6125406020830186611fc2565b61254d6040830185611fc2565b61255a6060830184611fc2565b95945050505050565b60006060820190506125786000830186611f98565b6125856020830185611fc2565b6125926040830184611fc2565b949350505050565b60006125a582611eec565b91506125b083611eec565b92508282019050808211156125c8576125c76122bf565b5b9291505056fea2646970667358221220437182f0bb264bcc5bcbf1da2efcea6f72459e8efe240134031c18f6943c69e364736f6c63430008180033",
  "linkReferences": {},
  "deployedLinkReferences": {}
}