{
  "_format": "hh-sol-artifact-1",
  "contractName": "SimpleDex",
  "sourceName": "contracts/dex/SimpleDex.sol",
  "abi": [
    {
      "anonymous": false,
      "inputs": [
        {
          "indexed": true,
          "internalType": "address",
          "name": "token0",
          "type": "address"
        },
        {
          "indexed": true,
          "internalType": "address",
          "name": "token1",
          "type": "address"
        },
        {
          "indexed": false,
          "internalType": "address",
          "name": "lptoken",
          "type": "address"
        }
      ],
      "name": "PairCreated",
      "type": "event"
    },
    {
      "inputs": [
        {
          "internalType": "address",
          "name": "tokenA",
          "type": "address"
        },
        {
          "internalType": "address",
          "name": "tokenB",
          "type": "address"
        },
        {
          "internalType": "uint256",
          "name": "amountADesired",
          "type": "uint256"
        },
        {
          "internalType": "uint256",
          "name": "amountBDesired",
          "type": "uint256"
        },
        {
          "internalType": "address",
          "name": "to",
          "type": "address"
        }
      ],
      "name": "addLiquidity",
      "outputs": [
        {
          "internalType": "uint256",
          "name": "amountA",
          "type": "uint256"
        },
        {
          "internalType": "uint256",
          "name": "amountB",
          "type": "uint256"
        },
        {
          "internalType": "uint256",
          "name": "liquidity",
          "type": "uint256"
        }
      ],
      "stateMutability": "nonpayable",
      "type": "function"
    },
    {
      "inputs": [
        {
          "internalType": "address",
          "name": "",
          "type": "address"
        },
        {
          "internalType": "address",
          "name": "",
          "type": "address"
        }
      ],
      "name": "lptokens",
      "outputs": [
        {
          "internalType": "address",
          "name": "",
          "type": "address"
        }
      ],
      "stateMutability": "view",
      "type": "function"
    },
    {
      "inputs": [
        {
          "internalType": "address",
          "name": "tokenA",
          "type": "address"
        },
        {
          "internalType": "address",
          "name": "tokenB",
          "type": "address"
        },
        {
          "internalType": "uint256",
          "name": "liquidity",
          "type": "uint256"
        },
        {
          "internalType": "address",
          "name": "to",
          "type": "address"
        }
      ],
      "name": "removeLiquidity",
      "outputs": [
        {
          "internalType": "uint256",
          "name": "amountA",
          "type": "uint256"
        },
        {
          "internalType": "uint256",
          "name": "amountB",
          "type": "uint256"
        }
      ],
      "stateMutability": "nonpayable",
      "type": "function"
    },
    {
      "inputs": [
        {
          "internalType": "uint256",
          "name": "amountIn",
          "type": "uint256"
        },
        {
          "internalType": "bool",
          "name": "swapsTokenA",
          "type": "bool"
        },
        {
          "internalType": "address",
          "name": "tokenA",
          "type": "address"
        },
        {
          "internalType": "address",
          "name": "tokenB",
          "type": "address"
        },
        {
          "internalType": "address",
          "name": "to",
          "type": "address"
        }
      ],
      "name": "swap",
      "outputs": [
        {
          "internalType": "uint256",
          "name": "amountOut",
          "type": "uint256"
        }
      ],
      "stateMutability": "nonpayable",
      "type": "function"
    }
  ],
  "bytecode": "0x608060405234801561001057600080fd5b50614542806100206000396000f3fe60806040523480156200001157600080fd5b5060043610620000525760003560e01c80631ee113b5146200005757806335d37664146200008d5780634b2fc7bb14620000c4578063a413f8eb14620000fc575b600080fd5b6200007560048036038101906200006f919062001224565b62000132565b604051620000849190620012bd565b60405180910390f35b620000ab6004803603810190620000a59190620012da565b62000575565b604051620000bb9291906200134c565b60405180910390f35b620000e26004803603810190620000dc919062001379565b6200078d565b604051620000f39392919062001401565b60405180910390f35b6200011a60048036038101906200011491906200143e565b620008af565b60405162000129919062001496565b60405180910390f35b600080861162000179576040517f08c379a0000000000000000000000000000000000000000000000000000000008152600401620001709062001514565b60405180910390fd5b600080620001888686620008f1565b9150915060008060008473ffffffffffffffffffffffffffffffffffffffff1673ffffffffffffffffffffffffffffffffffffffff16815260200190815260200160002060008373ffffffffffffffffffffffffffffffffffffffff1673ffffffffffffffffffffffffffffffffffffffff16815260200190815260200160002060009054906101000a900473ffffffffffffffffffffffffffffffffffffffff1690506000808273ffffffffffffffffffffffffffffffffffffffff166359bf5d396040518163ffffffff1660e01b81526004016040805180830381865afa1580156200027a573d6000803e3d6000fd5b505050506040513d601f19601f82011682018060405250810190620002a0919062001581565b6dffffffffffffffffffffffffffff1691506dffffffffffffffffffffffffffff1691506000808673ffffffffffffffffffffffffffffffffffffffff168b73ffffffffffffffffffffffffffffffffffffffff161480156200030057508b5b806200034357508673ffffffffffffffffffffffffffffffffffffffff168b73ffffffffffffffffffffffffffffffffffffffff16141580156200034257508b155b5b6200035057828462000353565b83835b9150915060006103e58e620003699190620015f7565b9050806103e8846200037c9190620015f7565b62000388919062001642565b8282620003969190620015f7565b620003a29190620016ac565b9850505050505087156200043c578673ffffffffffffffffffffffffffffffffffffffff166323b872dd33838c6040518463ffffffff1660e01b8152600401620003ef93929190620016e4565b6020604051808303816000875af11580156200040f573d6000803e3d6000fd5b505050506040513d601f19601f8201168201806040525081019062000435919062001738565b50620004c3565b8573ffffffffffffffffffffffffffffffffffffffff166323b872dd33838c6040518463ffffffff1660e01b81526004016200047b93929190620016e4565b6020604051808303816000875af11580156200049b573d6000803e3d6000fd5b505050506040513d601f19601f82011682018060405250810190620004c1919062001738565b505b60008089620004d557856000620004d9565b6000865b91509150600080620004ee8b8b868662000a25565b915091508473ffffffffffffffffffffffffffffffffffffffff16636d9a640a83838c6040518463ffffffff1660e01b815260040162000531939291906200176a565b600060405180830381600087803b1580156200054c57600080fd5b505af115801562000561573d6000803e3d6000fd5b505050505050505050505095945050505050565b600080600080620005878888620008f1565b9150915060008060008473ffffffffffffffffffffffffffffffffffffffff1673ffffffffffffffffffffffffffffffffffffffff16815260200190815260200160002060008373ffffffffffffffffffffffffffffffffffffffff1673ffffffffffffffffffffffffffffffffffffffff16815260200190815260200160002060009054906101000a900473ffffffffffffffffffffffffffffffffffffffff1690508073ffffffffffffffffffffffffffffffffffffffff166323b872dd33838a6040518463ffffffff1660e01b81526004016200066a93929190620016e4565b6020604051808303816000875af11580156200068a573d6000803e3d6000fd5b505050506040513d601f19601f82011682018060405250810190620006b0919062001738565b506000808273ffffffffffffffffffffffffffffffffffffffff166389afcb44896040518263ffffffff1660e01b8152600401620006ef919062001496565b60408051808303816000875af11580156200070e573d6000803e3d6000fd5b505050506040513d601f19601f82011682018060405250810190620007349190620017be565b915091508473ffffffffffffffffffffffffffffffffffffffff168b73ffffffffffffffffffffffffffffffffffffffff16146200077457808262000777565b81815b8097508198505050505050505094509492505050565b6000806000806000620007a18a8a620008f1565b91509150600080620007b68c8c8c8c62000a25565b915091506000806000620007cd8f8f8f8f62000aca565b9250925092508673ffffffffffffffffffffffffffffffffffffffff168f73ffffffffffffffffffffffffffffffffffffffff16146200080f57808262000812565b81815b809a50819b5050508273ffffffffffffffffffffffffffffffffffffffff16636a6278428c6040518263ffffffff1660e01b815260040162000855919062001496565b6020604051808303816000875af115801562000875573d6000803e3d6000fd5b505050506040513d601f19601f820116820180604052508101906200089b919062001805565b975050505050505050955095509592505050565b60006020528160005260406000206020528060005260406000206000915091509054906101000a900473ffffffffffffffffffffffffffffffffffffffff1681565b6000808273ffffffffffffffffffffffffffffffffffffffff168473ffffffffffffffffffffffffffffffffffffffff160362000965576040517f08c379a00000000000000000000000000000000000000000000000000000000081526004016200095c9062001887565b60405180910390fd5b8273ffffffffffffffffffffffffffffffffffffffff168473ffffffffffffffffffffffffffffffffffffffff1610620009a1578284620009a4565b83835b8092508193505050600073ffffffffffffffffffffffffffffffffffffffff168273ffffffffffffffffffffffffffffffffffffffff160362000a1e576040517f08c379a000000000000000000000000000000000000000000000000000000000815260040162000a1590620018f9565b60405180910390fd5b9250929050565b600080600084118062000a385750600083115b62000a7a576040517f08c379a000000000000000000000000000000000000000000000000000000000815260040162000a71906200196b565b60405180910390fd5b8473ffffffffffffffffffffffffffffffffffffffff168673ffffffffffffffffffffffffffffffffffffffff161062000ab657828462000ab9565b83835b809250819350505094509492505050565b60008060008060008873ffffffffffffffffffffffffffffffffffffffff1673ffffffffffffffffffffffffffffffffffffffff16815260200190815260200160002060008773ffffffffffffffffffffffffffffffffffffffff1673ffffffffffffffffffffffffffffffffffffffff16815260200190815260200160002060009054906101000a900473ffffffffffffffffffffffffffffffffffffffff169250600073ffffffffffffffffffffffffffffffffffffffff168373ffffffffffffffffffffffffffffffffffffffff160362000bb15762000bae878762000e27565b92505b6000808473ffffffffffffffffffffffffffffffffffffffff166359bf5d396040518163ffffffff1660e01b81526004016040805180830381865afa15801562000bff573d6000803e3d6000fd5b505050506040513d601f19601f8201168201806040525081019062000c25919062001581565b6dffffffffffffffffffffffffffff1691506dffffffffffffffffffffffffffff16915060008214801562000c5a5750600081145b1562000c70578686809450819550505062000d0f565b600087111562000ca05786935081818562000c8c9190620015f7565b62000c989190620016ac565b925062000d0e565b600086111562000cd05785925080828462000cbc9190620015f7565b62000cc89190620016ac565b935062000d0d565b6040517f08c379a000000000000000000000000000000000000000000000000000000000815260040162000d049062001514565b60405180910390fd5b5b5b8873ffffffffffffffffffffffffffffffffffffffff166323b872dd3387876040518463ffffffff1660e01b815260040162000d4e93929190620016e4565b6020604051808303816000875af115801562000d6e573d6000803e3d6000fd5b505050506040513d601f19601f8201168201806040525081019062000d94919062001738565b508773ffffffffffffffffffffffffffffffffffffffff166323b872dd3387866040518463ffffffff1660e01b815260040162000dd493929190620016e4565b6020604051808303816000875af115801562000df4573d6000803e3d6000fd5b505050506040513d601f19601f8201168201806040525081019062000e1a919062001738565b5050509450945094915050565b60008073ffffffffffffffffffffffffffffffffffffffff166000808573ffffffffffffffffffffffffffffffffffffffff1673ffffffffffffffffffffffffffffffffffffffff16815260200190815260200160002060008473ffffffffffffffffffffffffffffffffffffffff1673ffffffffffffffffffffffffffffffffffffffff16815260200190815260200160002060009054906101000a900473ffffffffffffffffffffffffffffffffffffffff1673ffffffffffffffffffffffffffffffffffffffff161462000f35576040517f08c379a000000000000000000000000000000000000000000000000000000000815260040162000f2c90620019dd565b60405180910390fd5b60006040518060200162000f499062001134565b6020820181038252601f19601f8201166040525090506000848460405160200162000f7692919062001a4f565b604051602081830303815290604052805190602001209050808251602084016000f592508273ffffffffffffffffffffffffffffffffffffffff1663485cc95586866040518363ffffffff1660e01b815260040162000fd792919062001a7f565b600060405180830381600087803b15801562000ff257600080fd5b505af115801562001007573d6000803e3d6000fd5b50505050826000808773ffffffffffffffffffffffffffffffffffffffff1673ffffffffffffffffffffffffffffffffffffffff16815260200190815260200160002060008673ffffffffffffffffffffffffffffffffffffffff1673ffffffffffffffffffffffffffffffffffffffff16815260200190815260200160002060006101000a81548173ffffffffffffffffffffffffffffffffffffffff021916908373ffffffffffffffffffffffffffffffffffffffff1602179055508373ffffffffffffffffffffffffffffffffffffffff168573ffffffffffffffffffffffffffffffffffffffff167fa92a2b95c8d8436f6ac4c673c61487364f877efb9534d4296fad8ef904546c948560405162001124919062001496565b60405180910390a3505092915050565b612a608062001aad83390190565b600080fd5b6000819050919050565b6200115c8162001147565b81146200116857600080fd5b50565b6000813590506200117c8162001151565b92915050565b60008115159050919050565b620011998162001182565b8114620011a557600080fd5b50565b600081359050620011b9816200118e565b92915050565b600073ffffffffffffffffffffffffffffffffffffffff82169050919050565b6000620011ec82620011bf565b9050919050565b620011fe81620011df565b81146200120a57600080fd5b50565b6000813590506200121e81620011f3565b92915050565b600080600080600060a0868803121562001243576200124262001142565b5b600062001253888289016200116b565b95505060206200126688828901620011a8565b945050604062001279888289016200120d565b93505060606200128c888289016200120d565b92505060806200129f888289016200120d565b9150509295509295909350565b620012b78162001147565b82525050565b6000602082019050620012d46000830184620012ac565b92915050565b60008060008060808587031215620012f757620012f662001142565b5b600062001307878288016200120d565b94505060206200131a878288016200120d565b93505060406200132d878288016200116b565b925050606062001340878288016200120d565b91505092959194509250565b6000604082019050620013636000830185620012ac565b620013726020830184620012ac565b9392505050565b600080600080600060a0868803121562001398576200139762001142565b5b6000620013a8888289016200120d565b9550506020620013bb888289016200120d565b9450506040620013ce888289016200116b565b9350506060620013e1888289016200116b565b9250506080620013f4888289016200120d565b9150509295509295909350565b6000606082019050620014186000830186620012ac565b620014276020830185620012ac565b620014366040830184620012ac565b949350505050565b6000806040838503121562001458576200145762001142565b5b600062001468858286016200120d565b92505060206200147b858286016200120d565b9150509250929050565b6200149081620011df565b82525050565b6000602082019050620014ad600083018462001485565b92915050565b600082825260208201905092915050565b7f6661696c65640000000000000000000000000000000000000000000000000000600082015250565b6000620014fc600683620014b3565b91506200150982620014c4565b602082019050919050565b600060208201905081810360008301526200152f81620014ed565b9050919050565b60006dffffffffffffffffffffffffffff82169050919050565b6200155b8162001536565b81146200156757600080fd5b50565b6000815190506200157b8162001550565b92915050565b600080604083850312156200159b576200159a62001142565b5b6000620015ab858286016200156a565b9250506020620015be858286016200156a565b9150509250929050565b7f4e487b7100000000000000000000000000000000000000000000000000000000600052601160045260246000fd5b6000620016048262001147565b9150620016118362001147565b9250828202620016218162001147565b915082820484148315176200163b576200163a620015c8565b5b5092915050565b60006200164f8262001147565b91506200165c8362001147565b9250828201905080821115620016775762001676620015c8565b5b92915050565b7f4e487b7100000000000000000000000000000000000000000000000000000000600052601260045260246000fd5b6000620016b98262001147565b9150620016c68362001147565b925082620016d957620016d86200167d565b5b828204905092915050565b6000606082019050620016fb600083018662001485565b6200170a602083018562001485565b620017196040830184620012ac565b949350505050565b60008151905062001732816200118e565b92915050565b60006020828403121562001751576200175062001142565b5b6000620017618482850162001721565b91505092915050565b6000606082019050620017816000830186620012ac565b620017906020830185620012ac565b6200179f604083018462001485565b949350505050565b600081519050620017b88162001151565b92915050565b60008060408385031215620017d857620017d762001142565b5b6000620017e885828601620017a7565b9250506020620017fb85828601620017a7565b9150509250929050565b6000602082840312156200181e576200181d62001142565b5b60006200182e84828501620017a7565b91505092915050565b7f626f746820746f6b656e73206172652073616d65206164647265737300000000600082015250565b60006200186f601c83620014b3565b91506200187c8262001837565b602082019050919050565b60006020820190508181036000830152620018a28162001860565b9050919050565b7f6f6e65206f6620746f6b656e206973207a65726f206164647265737300000000600082015250565b6000620018e1601c83620014b3565b9150620018ee82620018a9565b602082019050919050565b600060208201905081810360008301526200191481620018d2565b9050919050565b7f65697468657220616d6f756e74206973207a65726f0000000000000000000000600082015250565b600062001953601583620014b3565b915062001960826200191b565b602082019050919050565b60006020820190508181036000830152620019868162001944565b9050919050565b7f6578697374000000000000000000000000000000000000000000000000000000600082015250565b6000620019c5600583620014b3565b9150620019d2826200198d565b602082019050919050565b60006020820190508181036000830152620019f881620019b6565b9050919050565b60008160601b9050919050565b600062001a1982620019ff565b9050919050565b600062001a2d8262001a0c565b9050919050565b62001a4962001a4382620011df565b62001a20565b82525050565b600062001a5d828562001a34565b60148201915062001a6f828462001a34565b6014820191508190509392505050565b600060408201905062001a96600083018562001485565b62001aa5602083018462001485565b939250505056fe60806040523480156200001157600080fd5b506040518060400160405280600e81526020017f4c6971756964697479546f6b656e0000000000000000000000000000000000008152506040518060400160405280600381526020017f4c5054000000000000000000000000000000000000000000000000000000000081525081600390816200008f919062000365565b508060049081620000a1919062000365565b50505033600560006101000a81548173ffffffffffffffffffffffffffffffffffffffff021916908373ffffffffffffffffffffffffffffffffffffffff1602179055506200044c565b600081519050919050565b7f4e487b7100000000000000000000000000000000000000000000000000000000600052604160045260246000fd5b7f4e487b7100000000000000000000000000000000000000000000000000000000600052602260045260246000fd5b600060028204905060018216806200016d57607f821691505b60208210810362000183576200018262000125565b5b50919050565b60008190508160005260206000209050919050565b60006020601f8301049050919050565b600082821b905092915050565b600060088302620001ed7fffffffffffffffffffffffffffffffffffffffffffffffffffffffffffffffff82620001ae565b620001f98683620001ae565b95508019841693508086168417925050509392505050565b6000819050919050565b6000819050919050565b600062000246620002406200023a8462000211565b6200021b565b62000211565b9050919050565b6000819050919050565b620002628362000225565b6200027a62000271826200024d565b848454620001bb565b825550505050565b600090565b6200029162000282565b6200029e81848462000257565b505050565b5b81811015620002c657620002ba60008262000287565b600181019050620002a4565b5050565b601f8211156200031557620002df8162000189565b620002ea846200019e565b81016020851015620002fa578190505b6200031262000309856200019e565b830182620002a3565b50505b505050565b600082821c905092915050565b60006200033a600019846008026200031a565b1980831691505092915050565b600062000355838362000327565b9150826002028217905092915050565b6200037082620000eb565b67ffffffffffffffff8111156200038c576200038b620000f6565b5b62000398825462000154565b620003a5828285620002ca565b600060209050601f831160018114620003dd5760008415620003c8578287015190505b620003d4858262000347565b86555062000444565b601f198416620003ed8662000189565b60005b828110156200041757848901518255600182019150602085019450602081019050620003f0565b8683101562000437578489015162000433601f89168262000327565b8355505b6001600288020188555050505b505050505050565b612604806200045c6000396000f3fe608060405234801561001057600080fd5b506004361061010b5760003560e01c8063692058c2116100a257806389afcb441161007157806389afcb44146102bd57806395d89b41146102ee578063a9059cbb1461030c578063d21220a71461033c578063dd62ed3e1461035a5761010b565b8063692058c2146102235780636a627842146102415780636d9a640a1461027157806370a082311461028d5761010b565b806323b872dd116100de57806323b872dd1461019a578063313ce567146101ca578063485cc955146101e857806359bf5d39146102045761010b565b806306fdde0314610110578063095ea7b31461012e5780630dfe16811461015e57806318160ddd1461017c575b600080fd5b61011861038a565b6040516101259190611e67565b60405180910390f35b61014860048036038101906101439190611f22565b61041c565b6040516101559190611f7d565b60405180910390f35b61016661043f565b6040516101739190611fa7565b60405180910390f35b610184610465565b6040516101919190611fd1565b60405180910390f35b6101b460048036038101906101af9190611fec565b61046f565b6040516101c19190611f7d565b60405180910390f35b6101d261049e565b6040516101df919061205b565b60405180910390f35b61020260048036038101906101fd9190612076565b6104a7565b005b61020c6105bd565b60405161021a9291906120df565b60405180910390f35b61022b610602565b6040516102389190611fa7565b60405180910390f35b61025b60048036038101906102569190612108565b610628565b6040516102689190611fd1565b60405180910390f35b61028b60048036038101906102869190612135565b610952565b005b6102a760048036038101906102a29190612108565b610fac565b6040516102b49190611fd1565b60405180910390f35b6102d760048036038101906102d29190612108565b610ff4565b6040516102e5929190612188565b60405180910390f35b6102f66114d2565b6040516103039190611e67565b60405180910390f35b61032660048036038101906103219190611f22565b611564565b6040516103339190611f7d565b60405180910390f35b610344611587565b6040516103519190611fa7565b60405180910390f35b610374600480360381019061036f9190612076565b6115ad565b6040516103819190611fd1565b60405180910390f35b606060038054610399906121e0565b80601f01602080910402602001604051908101604052809291908181526020018280546103c5906121e0565b80156104125780601f106103e757610100808354040283529160200191610412565b820191906000526020600020905b8154815290600101906020018083116103f557829003601f168201915b5050505050905090565b600080610427611634565b905061043481858561163c565b600191505092915050565b600660009054906101000a900473ffffffffffffffffffffffffffffffffffffffff1681565b6000600254905090565b60008061047a611634565b905061048785828561164e565b6104928585856116e2565b60019150509392505050565b60006012905090565b600560009054906101000a900473ffffffffffffffffffffffffffffffffffffffff1673ffffffffffffffffffffffffffffffffffffffff163373ffffffffffffffffffffffffffffffffffffffff1614610537576040517f08c379a000000000000000000000000000000000000000000000000000000000815260040161052e9061225d565b60405180910390fd5b81600660006101000a81548173ffffffffffffffffffffffffffffffffffffffff021916908373ffffffffffffffffffffffffffffffffffffffff16021790555080600760006101000a81548173ffffffffffffffffffffffffffffffffffffffff021916908373ffffffffffffffffffffffffffffffffffffffff1602179055505050565b600080600860009054906101000a90046dffffffffffffffffffffffffffff1691506008600e9054906101000a90046dffffffffffffffffffffffffffff1690509091565b600560009054906101000a900473ffffffffffffffffffffffffffffffffffffffff1681565b600080600660009054906101000a900473ffffffffffffffffffffffffffffffffffffffff1673ffffffffffffffffffffffffffffffffffffffff166370a08231306040518263ffffffff1660e01b81526004016106869190611fa7565b602060405180830381865afa1580156106a3573d6000803e3d6000fd5b505050506040513d601f19601f820116820180604052508101906106c79190612292565b90506000600760009054906101000a900473ffffffffffffffffffffffffffffffffffffffff1673ffffffffffffffffffffffffffffffffffffffff166370a08231306040518263ffffffff1660e01b81526004016107269190611fa7565b602060405180830381865afa158015610743573d6000803e3d6000fd5b505050506040513d601f19601f820116820180604052508101906107679190612292565b90506000600860009054906101000a90046dffffffffffffffffffffffffffff166dffffffffffffffffffffffffffff16836107a391906122ee565b905060006008600e9054906101000a90046dffffffffffffffffffffffffffff166dffffffffffffffffffffffffffff16836107df91906122ee565b905060006107eb610465565b9050600081036108105761080982846108049190612322565b6117d6565b95506108a1565b61089e600860009054906101000a90046dffffffffffffffffffffffffffff166dffffffffffffffffffffffffffff16828561084c9190612322565b6108569190612393565b6008600e9054906101000a90046dffffffffffffffffffffffffffff166dffffffffffffffffffffffffffff16838561088f9190612322565b6108999190612393565b611850565b95505b600086116108e4576040517f08c379a00000000000000000000000000000000000000000000000000000000081526004016108db90612410565b60405180910390fd5b6108ee8787611869565b6108f885856118eb565b3373ffffffffffffffffffffffffffffffffffffffff167f4c209b5fc8ad50758f13e2e1088ba56a560dff690a1c6fef26394f4c03821c4f8484604051610940929190612188565b60405180910390a25050505050919050565b60008311806109615750600082115b6109a0576040517f08c379a00000000000000000000000000000000000000000000000000000000081526004016109979061247c565b60405180910390fd5b600860009054906101000a90046dffffffffffffffffffffffffffff166dffffffffffffffffffffffffffff1683108015610a0657506008600e9054906101000a90046dffffffffffffffffffffffffffff166dffffffffffffffffffffffffffff1682105b610a45576040517f08c379a0000000000000000000000000000000000000000000000000000000008152600401610a3c9061247c565b60405180910390fd5b600660009054906101000a900473ffffffffffffffffffffffffffffffffffffffff1673ffffffffffffffffffffffffffffffffffffffff168173ffffffffffffffffffffffffffffffffffffffff1614158015610af15750600760009054906101000a900473ffffffffffffffffffffffffffffffffffffffff1673ffffffffffffffffffffffffffffffffffffffff168173ffffffffffffffffffffffffffffffffffffffff1614155b610b30576040517f08c379a0000000000000000000000000000000000000000000000000000000008152600401610b279061247c565b60405180910390fd5b6000831115610bdb57600660009054906101000a900473ffffffffffffffffffffffffffffffffffffffff1673ffffffffffffffffffffffffffffffffffffffff1663a9059cbb82856040518363ffffffff1660e01b8152600401610b9692919061249c565b6020604051808303816000875af1158015610bb5573d6000803e3d6000fd5b505050506040513d601f19601f82011682018060405250810190610bd991906124f1565b505b6000821115610c8657600760009054906101000a900473ffffffffffffffffffffffffffffffffffffffff1673ffffffffffffffffffffffffffffffffffffffff1663a9059cbb82846040518363ffffffff1660e01b8152600401610c4192919061249c565b6020604051808303816000875af1158015610c60573d6000803e3d6000fd5b505050506040513d601f19601f82011682018060405250810190610c8491906124f1565b505b6000600660009054906101000a900473ffffffffffffffffffffffffffffffffffffffff1673ffffffffffffffffffffffffffffffffffffffff166370a08231306040518263ffffffff1660e01b8152600401610ce39190611fa7565b602060405180830381865afa158015610d00573d6000803e3d6000fd5b505050506040513d601f19601f82011682018060405250810190610d249190612292565b90506000600760009054906101000a900473ffffffffffffffffffffffffffffffffffffffff1673ffffffffffffffffffffffffffffffffffffffff166370a08231306040518263ffffffff1660e01b8152600401610d839190611fa7565b602060405180830381865afa158015610da0573d6000803e3d6000fd5b505050506040513d601f19601f82011682018060405250810190610dc49190612292565b9050600085600860009054906101000a90046dffffffffffffffffffffffffffff166dffffffffffffffffffffffffffff16610e0091906122ee565b8311610e0d576000610e51565b85600860009054906101000a90046dffffffffffffffffffffffffffff166dffffffffffffffffffffffffffff16610e4591906122ee565b83610e5091906122ee565b5b90506000856008600e9054906101000a90046dffffffffffffffffffffffffffff166dffffffffffffffffffffffffffff16610e8d91906122ee565b8311610e9a576000610ede565b856008600e9054906101000a90046dffffffffffffffffffffffffffff166dffffffffffffffffffffffffffff16610ed291906122ee565b83610edd91906122ee565b5b90506000821180610eef5750600081115b610f2e576040517f08c379a0000000000000000000000000000000000000000000000000000000008152600401610f259061247c565b60405180910390fd5b610f3884846118eb565b8473ffffffffffffffffffffffffffffffffffffffff163373ffffffffffffffffffffffffffffffffffffffff167fd78ad95fa46c994b6551d0da85fc275fe613ce37657fb8d5e3d130840159d82284848b8b604051610f9b949392919061251e565b60405180910390a350505050505050565b60008060008373ffffffffffffffffffffffffffffffffffffffff1673ffffffffffffffffffffffffffffffffffffffff168152602001908152602001600020549050919050565b6000806000600660009054906101000a900473ffffffffffffffffffffffffffffffffffffffff1673ffffffffffffffffffffffffffffffffffffffff166370a08231306040518263ffffffff1660e01b81526004016110549190611fa7565b602060405180830381865afa158015611071573d6000803e3d6000fd5b505050506040513d601f19601f820116820180604052508101906110959190612292565b90506000600760009054906101000a900473ffffffffffffffffffffffffffffffffffffffff1673ffffffffffffffffffffffffffffffffffffffff166370a08231306040518263ffffffff1660e01b81526004016110f49190611fa7565b602060405180830381865afa158015611111573d6000803e3d6000fd5b505050506040513d601f19601f820116820180604052508101906111359190612292565b9050600061114230610fac565b9050600061114e610465565b905080848361115d9190612322565b6111679190612393565b95508083836111769190612322565b6111809190612393565b945060008611806111915750600085115b6111d0576040517f08c379a00000000000000000000000000000000000000000000000000000000081526004016111c79061247c565b60405180910390fd5b6111da3083611959565b600660009054906101000a900473ffffffffffffffffffffffffffffffffffffffff1673ffffffffffffffffffffffffffffffffffffffff1663a9059cbb88886040518363ffffffff1660e01b815260040161123792919061249c565b6020604051808303816000875af1158015611256573d6000803e3d6000fd5b505050506040513d601f19601f8201168201806040525081019061127a91906124f1565b50600760009054906101000a900473ffffffffffffffffffffffffffffffffffffffff1673ffffffffffffffffffffffffffffffffffffffff1663a9059cbb88876040518363ffffffff1660e01b81526004016112d892919061249c565b6020604051808303816000875af11580156112f7573d6000803e3d6000fd5b505050506040513d601f19601f8201168201806040525081019061131b91906124f1565b50600660009054906101000a900473ffffffffffffffffffffffffffffffffffffffff1673ffffffffffffffffffffffffffffffffffffffff166370a08231306040518263ffffffff1660e01b81526004016113779190611fa7565b602060405180830381865afa158015611394573d6000803e3d6000fd5b505050506040513d601f19601f820116820180604052508101906113b89190612292565b9350600760009054906101000a900473ffffffffffffffffffffffffffffffffffffffff1673ffffffffffffffffffffffffffffffffffffffff166370a08231306040518263ffffffff1660e01b81526004016114159190611fa7565b602060405180830381865afa158015611432573d6000803e3d6000fd5b505050506040513d601f19601f820116820180604052508101906114569190612292565b925061146284846118eb565b8673ffffffffffffffffffffffffffffffffffffffff163373ffffffffffffffffffffffffffffffffffffffff167fdccd412f0b1252819cb1fd330b93224ca42612892bb3f4f789976e6d8193649688886040516114c1929190612188565b60405180910390a350505050915091565b6060600480546114e1906121e0565b80601f016020809104026020016040519081016040528092919081815260200182805461150d906121e0565b801561155a5780601f1061152f5761010080835404028352916020019161155a565b820191906000526020600020905b81548152906001019060200180831161153d57829003601f168201915b5050505050905090565b60008061156f611634565b905061157c8185856116e2565b600191505092915050565b600760009054906101000a900473ffffffffffffffffffffffffffffffffffffffff1681565b6000600160008473ffffffffffffffffffffffffffffffffffffffff1673ffffffffffffffffffffffffffffffffffffffff16815260200190815260200160002060008373ffffffffffffffffffffffffffffffffffffffff1673ffffffffffffffffffffffffffffffffffffffff16815260200190815260200160002054905092915050565b600033905090565b61164983838360016119db565b505050565b600061165a84846115ad565b90507fffffffffffffffffffffffffffffffffffffffffffffffffffffffffffffffff81146116dc57818110156116cc578281836040517ffb8f41b20000000000000000000000000000000000000000000000000000000081526004016116c393929190612563565b60405180910390fd5b6116db848484840360006119db565b5b50505050565b600073ffffffffffffffffffffffffffffffffffffffff168373ffffffffffffffffffffffffffffffffffffffff16036117545760006040517f96c6fd1e00000000000000000000000000000000000000000000000000000000815260040161174b9190611fa7565b60405180910390fd5b600073ffffffffffffffffffffffffffffffffffffffff168273ffffffffffffffffffffffffffffffffffffffff16036117c65760006040517fec442f050000000000000000000000000000000000000000000000000000000081526004016117bd9190611fa7565b60405180910390fd5b6117d1838383611bb2565b505050565b6000600382111561183d57819050600060016002846117f59190612393565b6117ff919061259a565b90505b8181101561183757809150600281828561181c9190612393565b611826919061259a565b6118309190612393565b9050611802565b5061184b565b6000821461184a57600190505b5b919050565b600081831061185f5781611861565b825b905092915050565b600073ffffffffffffffffffffffffffffffffffffffff168273ffffffffffffffffffffffffffffffffffffffff16036118db5760006040517fec442f050000000000000000000000000000000000000000000000000000000081526004016118d29190611fa7565b60405180910390fd5b6118e760008383611bb2565b5050565b81600860006101000a8154816dffffffffffffffffffffffffffff02191690836dffffffffffffffffffffffffffff160217905550806008600e6101000a8154816dffffffffffffffffffffffffffff02191690836dffffffffffffffffffffffffffff1602179055505050565b600073ffffffffffffffffffffffffffffffffffffffff168273ffffffffffffffffffffffffffffffffffffffff16036119cb5760006040517f96c6fd1e0000000000000000000000000000000000000000000000000000000081526004016119c29190611fa7565b60405180910390fd5b6119d782600083611bb2565b5050565b600073ffffffffffffffffffffffffffffffffffffffff168473ffffffffffffffffffffffffffffffffffffffff1603611a4d5760006040517fe602df05000000000000000000000000000000000000000000000000000000008152600401611a449190611fa7565b60405180910390fd5b600073ffffffffffffffffffffffffffffffffffffffff168373ffffffffffffffffffffffffffffffffffffffff1603611abf5760006040517f94280d62000000000000000000000000000000000000000000000000000000008152600401611ab69190611fa7565b60405180910390fd5b81600160008673ffffffffffffffffffffffffffffffffffffffff1673ffffffffffffffffffffffffffffffffffffffff16815260200190815260200160002060008573ffffffffffffffffffffffffffffffffffffffff1673ffffffffffffffffffffffffffffffffffffffff168152602001908152602001600020819055508015611bac578273ffffffffffffffffffffffffffffffffffffffff168473ffffffffffffffffffffffffffffffffffffffff167f8c5be1e5ebec7d5bd14f71427d1e84f3dd0314c0f7b2291e5b200ac8c7c3b92584604051611ba39190611fd1565b60405180910390a35b50505050565b600073ffffffffffffffffffffffffffffffffffffffff168373ffffffffffffffffffffffffffffffffffffffff1603611c04578060026000828254611bf8919061259a565b92505081905550611cd7565b60008060008573ffffffffffffffffffffffffffffffffffffffff1673ffffffffffffffffffffffffffffffffffffffff16815260200190815260200160002054905081811015611c90578381836040517fe450d38c000000000000000000000000000000000000000000000000000000008152600401611c8793929190612563565b60405180910390fd5b8181036000808673ffffffffffffffffffffffffffffffffffffffff1673ffffffffffffffffffffffffffffffffffffffff16815260200190815260200160002081905550505b600073ffffffffffffffffffffffffffffffffffffffff168273ffffffffffffffffffffffffffffffffffffffff1603611d205780600260008282540392505081905550611d6d565b806000808473ffffffffffffffffffffffffffffffffffffffff1673ffffffffffffffffffffffffffffffffffffffff168152602001908152602001600020600082825401925050819055505b8173ffffffffffffffffffffffffffffffffffffffff168373ffffffffffffffffffffffffffffffffffffffff167fddf252ad1be2c89b69c2b068fc378daa952ba7f163c4a11628f55a4df523b3ef83604051611dca9190611fd1565b60405180910390a3505050565b600081519050919050565b600082825260208201905092915050565b60005b83811015611e11578082015181840152602081019050611df6565b60008484015250505050565b6000601f19601f8301169050919050565b6000611e3982611dd7565b611e438185611de2565b9350611e53818560208601611df3565b611e5c81611e1d565b840191505092915050565b60006020820190508181036000830152611e818184611e2e565b905092915050565b600080fd5b600073ffffffffffffffffffffffffffffffffffffffff82169050919050565b6000611eb982611e8e565b9050919050565b611ec981611eae565b8114611ed457600080fd5b50565b600081359050611ee681611ec0565b92915050565b6000819050919050565b611eff81611eec565b8114611f0a57600080fd5b50565b600081359050611f1c81611ef6565b92915050565b60008060408385031215611f3957611f38611e89565b5b6000611f4785828601611ed7565b9250506020611f5885828601611f0d565b9150509250929050565b60008115159050919050565b611f7781611f62565b82525050565b6000602082019050611f926000830184611f6e565b92915050565b611fa181611eae565b82525050565b6000602082019050611fbc6000830184611f98565b92915050565b611fcb81611eec565b82525050565b6000602082019050611fe66000830184611fc2565b92915050565b60008060006060848603121561200557612004611e89565b5b600061201386828701611ed7565b935050602061202486828701611ed7565b925050604061203586828701611f0d565b9150509250925092565b600060ff82169050919050565b6120558161203f565b82525050565b6000602082019050612070600083018461204c565b92915050565b6000806040838503121561208d5761208c611e89565b5b600061209b85828601611ed7565b92505060206120ac85828601611ed7565b9150509250929050565b60006dffffffffffffffffffffffffffff82169050919050565b6120d9816120b6565b82525050565b60006040820190506120f460008301856120d0565b61210160208301846120d0565b9392505050565b60006020828403121561211e5761211d611e89565b5b600061212c84828501611ed7565b91505092915050565b60008060006060848603121561214e5761214d611e89565b5b600061215c86828701611f0d565b935050602061216d86828701611f0d565b925050604061217e86828701611ed7565b9150509250925092565b600060408201905061219d6000830185611fc2565b6121aa6020830184611fc2565b9392505050565b7f4e487b7100000000000000000000000000000000000000000000000000000000600052602260045260246000fd5b600060028204905060018216806121f857607f821691505b60208210810361220b5761220a6121b1565b5b50919050565b7f6f6e6c79206465782063616e2063616c6c000000000000000000000000000000600082015250565b6000612247601183611de2565b915061225282612211565b602082019050919050565b600060208201905081810360008301526122768161223a565b9050919050565b60008151905061228c81611ef6565b92915050565b6000602082840312156122a8576122a7611e89565b5b60006122b68482850161227d565b91505092915050565b7f4e487b7100000000000000000000000000000000000000000000000000000000600052601160045260246000fd5b60006122f982611eec565b915061230483611eec565b925082820390508181111561231c5761231b6122bf565b5b92915050565b600061232d82611eec565b915061233883611eec565b925082820261234681611eec565b9150828204841483151761235d5761235c6122bf565b5b5092915050565b7f4e487b7100000000000000000000000000000000000000000000000000000000600052601260045260246000fd5b600061239e82611eec565b91506123a983611eec565b9250826123b9576123b8612364565b5b828204905092915050565b7f696e73756666696369656e74206c6971756964697479206d696e746564000000600082015250565b60006123fa601d83611de2565b9150612405826123c4565b602082019050919050565b60006020820190508181036000830152612429816123ed565b9050919050565b7f6661696c65640000000000000000000000000000000000000000000000000000600082015250565b6000612466600683611de2565b915061247182612430565b602082019050919050565b6000602082019050818103600083015261249581612459565b9050919050565b60006040820190506124b16000830185611f98565b6124be6020830184611fc2565b9392505050565b6124ce81611f62565b81146124d957600080fd5b50565b6000815190506124eb816124c5565b92915050565b60006020828403121561250757612506611e89565b5b6000612515848285016124dc565b91505092915050565b60006080820190506125336000830187611fc2565b6125406020830186611fc2565b61254d6040830185611fc2565b61255a6060830184611fc2565b95945050505050565b60006060820190506125786000830186611f98565b6125856020830185611fc2565b6125926040830184611fc2565b949350505050565b60006125a582611eec565b91506125b083611eec565b92508282019050808211156125c8576125c76122bf565b5b9291505056fea2646970667358221220437182f0bb264bcc5bcbf1da2efcea6f72459e8efe240134031c18f6943c69e364736f6c63430008180033a2646970667358221220d39ed2e962c7ebb20a92623c5b4cb21513bc6d0d66aa6484dd5c6beeb249859c64736f6c63430008180033",
  "linkReferences": {},
  "deployedLinkReferences": {}
}